{
  "_format": "hh-sol-artifact-1",
  "contractName": "MyEpicNFT",
  "sourceName": "contracts/MyEpicNFT.sol",
  "abi": [
    {
      "inputs": [],
      "stateMutability": "nonpayable",
      "type": "constructor"
    },
    {
      "anonymous": false,
      "inputs": [
        {
          "indexed": true,
          "internalType": "address",
          "name": "owner",
          "type": "address"
        },
        {
          "indexed": true,
          "internalType": "address",
          "name": "approved",
          "type": "address"
        },
        {
          "indexed": true,
          "internalType": "uint256",
          "name": "tokenId",
          "type": "uint256"
        }
      ],
      "name": "Approval",
      "type": "event"
    },
    {
      "anonymous": false,
      "inputs": [
        {
          "indexed": true,
          "internalType": "address",
          "name": "owner",
          "type": "address"
        },
        {
          "indexed": true,
          "internalType": "address",
          "name": "operator",
          "type": "address"
        },
        {
          "indexed": false,
          "internalType": "bool",
          "name": "approved",
          "type": "bool"
        }
      ],
      "name": "ApprovalForAll",
      "type": "event"
    },
    {
      "anonymous": false,
      "inputs": [
        {
          "indexed": false,
          "internalType": "address",
          "name": "sender",
          "type": "address"
        },
        {
          "indexed": false,
          "internalType": "uint256",
          "name": "tokenId",
          "type": "uint256"
        }
      ],
      "name": "NewEpicNFTMinted",
      "type": "event"
    },
    {
      "anonymous": false,
      "inputs": [
        {
          "indexed": true,
          "internalType": "address",
          "name": "from",
          "type": "address"
        },
        {
          "indexed": true,
          "internalType": "address",
          "name": "to",
          "type": "address"
        },
        {
          "indexed": true,
          "internalType": "uint256",
          "name": "tokenId",
          "type": "uint256"
        }
      ],
      "name": "Transfer",
      "type": "event"
    },
    {
      "inputs": [
        {
          "internalType": "address",
          "name": "to",
          "type": "address"
        },
        {
          "internalType": "uint256",
          "name": "tokenId",
          "type": "uint256"
        }
      ],
      "name": "approve",
      "outputs": [],
      "stateMutability": "nonpayable",
      "type": "function"
    },
    {
      "inputs": [
        {
          "internalType": "address",
          "name": "owner",
          "type": "address"
        }
      ],
      "name": "balanceOf",
      "outputs": [
        {
          "internalType": "uint256",
          "name": "",
          "type": "uint256"
        }
      ],
      "stateMutability": "view",
      "type": "function"
    },
    {
      "inputs": [
        {
          "internalType": "uint256",
          "name": "tokenId",
          "type": "uint256"
        }
      ],
      "name": "getApproved",
      "outputs": [
        {
          "internalType": "address",
          "name": "",
          "type": "address"
        }
      ],
      "stateMutability": "view",
      "type": "function"
    },
    {
      "inputs": [
        {
          "internalType": "address",
          "name": "owner",
          "type": "address"
        },
        {
          "internalType": "address",
          "name": "operator",
          "type": "address"
        }
      ],
      "name": "isApprovedForAll",
      "outputs": [
        {
          "internalType": "bool",
          "name": "",
          "type": "bool"
        }
      ],
      "stateMutability": "view",
      "type": "function"
    },
    {
      "inputs": [],
      "name": "makeAnEpicNFT",
      "outputs": [],
      "stateMutability": "nonpayable",
      "type": "function"
    },
    {
      "inputs": [],
      "name": "name",
      "outputs": [
        {
          "internalType": "string",
          "name": "",
          "type": "string"
        }
      ],
      "stateMutability": "view",
      "type": "function"
    },
    {
      "inputs": [
        {
          "internalType": "uint256",
          "name": "tokenId",
          "type": "uint256"
        }
      ],
      "name": "ownerOf",
      "outputs": [
        {
          "internalType": "address",
          "name": "",
          "type": "address"
        }
      ],
      "stateMutability": "view",
      "type": "function"
    },
    {
      "inputs": [
        {
          "internalType": "uint256",
          "name": "tokenId",
          "type": "uint256"
        }
      ],
      "name": "pickRandomFirstWord",
      "outputs": [
        {
          "internalType": "string",
          "name": "",
          "type": "string"
        }
      ],
      "stateMutability": "view",
      "type": "function"
    },
    {
      "inputs": [
        {
          "internalType": "uint256",
          "name": "tokenId",
          "type": "uint256"
        }
      ],
      "name": "pickRandomSecondWord",
      "outputs": [
        {
          "internalType": "string",
          "name": "",
          "type": "string"
        }
      ],
      "stateMutability": "view",
      "type": "function"
    },
    {
      "inputs": [
        {
          "internalType": "uint256",
          "name": "tokenId",
          "type": "uint256"
        }
      ],
      "name": "pickRandomThirdWord",
      "outputs": [
        {
          "internalType": "string",
          "name": "",
          "type": "string"
        }
      ],
      "stateMutability": "view",
      "type": "function"
    },
    {
      "inputs": [
        {
          "internalType": "address",
          "name": "from",
          "type": "address"
        },
        {
          "internalType": "address",
          "name": "to",
          "type": "address"
        },
        {
          "internalType": "uint256",
          "name": "tokenId",
          "type": "uint256"
        }
      ],
      "name": "safeTransferFrom",
      "outputs": [],
      "stateMutability": "nonpayable",
      "type": "function"
    },
    {
      "inputs": [
        {
          "internalType": "address",
          "name": "from",
          "type": "address"
        },
        {
          "internalType": "address",
          "name": "to",
          "type": "address"
        },
        {
          "internalType": "uint256",
          "name": "tokenId",
          "type": "uint256"
        },
        {
          "internalType": "bytes",
          "name": "_data",
          "type": "bytes"
        }
      ],
      "name": "safeTransferFrom",
      "outputs": [],
      "stateMutability": "nonpayable",
      "type": "function"
    },
    {
      "inputs": [
        {
          "internalType": "address",
          "name": "operator",
          "type": "address"
        },
        {
          "internalType": "bool",
          "name": "approved",
          "type": "bool"
        }
      ],
      "name": "setApprovalForAll",
      "outputs": [],
      "stateMutability": "nonpayable",
      "type": "function"
    },
    {
      "inputs": [
        {
          "internalType": "bytes4",
          "name": "interfaceId",
          "type": "bytes4"
        }
      ],
      "name": "supportsInterface",
      "outputs": [
        {
          "internalType": "bool",
          "name": "",
          "type": "bool"
        }
      ],
      "stateMutability": "view",
      "type": "function"
    },
    {
      "inputs": [],
      "name": "symbol",
      "outputs": [
        {
          "internalType": "string",
          "name": "",
          "type": "string"
        }
      ],
      "stateMutability": "view",
      "type": "function"
    },
    {
      "inputs": [
        {
          "internalType": "uint256",
          "name": "tokenId",
          "type": "uint256"
        }
      ],
      "name": "tokenURI",
      "outputs": [
        {
          "internalType": "string",
          "name": "",
          "type": "string"
        }
      ],
      "stateMutability": "view",
      "type": "function"
    },
    {
      "inputs": [
        {
          "internalType": "address",
          "name": "from",
          "type": "address"
        },
        {
          "internalType": "address",
          "name": "to",
          "type": "address"
        },
        {
          "internalType": "uint256",
          "name": "tokenId",
          "type": "uint256"
        }
      ],
      "name": "transferFrom",
      "outputs": [],
      "stateMutability": "nonpayable",
      "type": "function"
    }
  ],
  "bytecode": "0x608060405260405180610160016040528061012f81526020016200473561012f9139600890805190602001906200003892919062000aa7565b506040518061018001604052806040518060400160405280600881526020017f46616365626f6f6b00000000000000000000000000000000000000000000000081525081526020016040518060400160405280600781526020017f547769747465720000000000000000000000000000000000000000000000000081525081526020016040518060400160405280600981526020017f496e7374616772616d000000000000000000000000000000000000000000000081525081526020016040518060400160405280600681526020017f54696b546f6b000000000000000000000000000000000000000000000000000081525081526020016040518060400160405280600981526020017f50696e746572657374000000000000000000000000000000000000000000000081525081526020016040518060400160405280600681526020017f526564646974000000000000000000000000000000000000000000000000000081525081526020016040518060400160405280600781526020017f446973636f72640000000000000000000000000000000000000000000000000081525081526020016040518060400160405280600581526020017f536c61636b00000000000000000000000000000000000000000000000000000081525081526020016040518060400160405280600881526020017f536e61706368617400000000000000000000000000000000000000000000000081525081526020016040518060400160405280600681526020017f476f6f676c65000000000000000000000000000000000000000000000000000081525081526020016040518060400160405280600581526020017f4170706c6500000000000000000000000000000000000000000000000000000081525081526020016040518060400160405280600681526020017f416d617a6f6e0000000000000000000000000000000000000000000000000000815250815250600990600c6200031992919062000b38565b506040518061018001604052806040518060400160405280600381526020017f43616e000000000000000000000000000000000000000000000000000000000081525081526020016040518060400160405280600481526020017f57696c6c0000000000000000000000000000000000000000000000000000000081525081526020016040518060400160405280600481526020017f446f65730000000000000000000000000000000000000000000000000000000081525081526020016040518060400160405280600381526020017f486173000000000000000000000000000000000000000000000000000000000081525081526020016040518060400160405280600581526020017f57616e747300000000000000000000000000000000000000000000000000000081525081526020016040518060400160405280600581526020017f4c6f76657300000000000000000000000000000000000000000000000000000081525081526020016040518060400160405280600581526020017f486174657300000000000000000000000000000000000000000000000000000081525081526020016040518060400160405280600681526020017f537465616c73000000000000000000000000000000000000000000000000000081525081526020016040518060400160405280600581526020017f53656c6c7300000000000000000000000000000000000000000000000000000081525081526020016040518060400160405280600681526020017f41766f696473000000000000000000000000000000000000000000000000000081525081526020016040518060400160405280600681526020017f446f64676573000000000000000000000000000000000000000000000000000081525081526020016040518060400160405280600481526020017f52756e7300000000000000000000000000000000000000000000000000000000815250815250600a90600c620005fa92919062000b38565b506040518061018001604052806040518060400160405280600381526020017f48616d000000000000000000000000000000000000000000000000000000000081525081526020016040518060400160405280600581526020017f50697a7a6100000000000000000000000000000000000000000000000000000081525081526020016040518060400160405280600781526020017f486f6e657374790000000000000000000000000000000000000000000000000081525081526020016040518060400160405280600581526020017f547275746800000000000000000000000000000000000000000000000000000081525081526020016040518060400160405280600581526020017f557365727300000000000000000000000000000000000000000000000000000081525081526020016040518060400160405280600981526020017f496e766573746f7273000000000000000000000000000000000000000000000081525081526020016040518060400160405280600481526020017f4e6577730000000000000000000000000000000000000000000000000000000081525081526020016040518060400160405280600a81526020017f476f7665726e6d656e740000000000000000000000000000000000000000000081525081526020016040518060400160405280600781526020017f536f63696574790000000000000000000000000000000000000000000000000081525081526020016040518060400160405280600581526020017f456172746800000000000000000000000000000000000000000000000000000081525081526020016040518060400160405280600581526020017f537061636500000000000000000000000000000000000000000000000000000081525081526020016040518060400160405280600481526020017f4d61727300000000000000000000000000000000000000000000000000000000815250815250600b90600c620008db92919062000b38565b50348015620008e957600080fd5b506040518060400160405280600781526020017f446f70654e4654000000000000000000000000000000000000000000000000008152506040518060400160405280600481526020017f444f50450000000000000000000000000000000000000000000000000000000081525081600090805190602001906200096e92919062000aa7565b5080600190805190602001906200098792919062000aa7565b505050620009d56040518060400160405280601e81526020017f54686973206973206d79204e465420636f6e74726163742e20576f6168210000815250620009db60201b6200122d1760201c565b62000d59565b62000a7b81604051602401620009f2919062000c6d565b6040516020818303038152906040527f41304fac000000000000000000000000000000000000000000000000000000007bffffffffffffffffffffffffffffffffffffffffffffffffffffffff19166020820180517bffffffffffffffffffffffffffffffffffffffffffffffffffffffff838183161783525050505062000a7e60201b60201c565b50565b60008151905060006a636f6e736f6c652e6c6f679050602083016000808483855afa5050505050565b82805462000ab59062000ce3565b90600052602060002090601f01602090048101928262000ad9576000855562000b25565b82601f1062000af457805160ff191683800117855562000b25565b8280016001018555821562000b25579182015b8281111562000b2457825182559160200191906001019062000b07565b5b50905062000b34919062000b9f565b5090565b82805482825590600052602060002090810192821562000b8c579160200282015b8281111562000b8b57825182908051906020019062000b7a92919062000aa7565b509160200191906001019062000b59565b5b50905062000b9b919062000bbe565b5090565b5b8082111562000bba57600081600090555060010162000ba0565b5090565b5b8082111562000be2576000818162000bd8919062000be6565b5060010162000bbf565b5090565b50805462000bf49062000ce3565b6000825580601f1062000c08575062000c29565b601f01602090049060005260206000209081019062000c28919062000b9f565b5b50565b600062000c398262000c91565b62000c45818562000c9c565b935062000c5781856020860162000cad565b62000c628162000d48565b840191505092915050565b6000602082019050818103600083015262000c89818462000c2c565b905092915050565b600081519050919050565b600082825260208201905092915050565b60005b8381101562000ccd57808201518184015260208101905062000cb0565b8381111562000cdd576000848401525b50505050565b6000600282049050600182168062000cfc57607f821691505b6020821081141562000d135762000d1262000d19565b5b50919050565b7f4e487b7100000000000000000000000000000000000000000000000000000000600052602260045260246000fd5b6000601f19601f8301169050919050565b6139cc8062000d696000396000f3fe608060405234801561001057600080fd5b506004361061010b5760003560e01c806370a08231116100a2578063b88d4fde11610071578063b88d4fde146102dc578063c575757a146102f8578063c87b56dd14610328578063de9d132f14610358578063e985e9c5146103625761010b565b806370a082311461024257806395d89b4114610272578063a22cb46514610290578063b187301f146102ac5761010b565b806323b872dd116100de57806323b872dd146101aa5780632de38d68146101c657806342842e0e146101f65780636352211e146102125761010b565b806301ffc9a71461011057806306fdde0314610140578063081812fc1461015e578063095ea7b31461018e575b600080fd5b61012a600480360381019061012591906124c0565b610392565b6040516101379190612be4565b60405180910390f35b610148610474565b6040516101559190612bff565b60405180910390f35b61017860048036038101906101739190612512565b610506565b6040516101859190612b54565b60405180910390f35b6101a860048036038101906101a39190612484565b61058b565b005b6101c460048036038101906101bf919061237e565b6106a3565b005b6101e060048036038101906101db9190612512565b610703565b6040516101ed9190612bff565b60405180910390f35b610210600480360381019061020b919061237e565b610821565b005b61022c60048036038101906102279190612512565b610841565b6040516102399190612b54565b60405180910390f35b61025c60048036038101906102579190612319565b6108f3565b6040516102699190612e5f565b60405180910390f35b61027a6109ab565b6040516102879190612bff565b60405180910390f35b6102aa60048036038101906102a59190612448565b610a3d565b005b6102c660048036038101906102c19190612512565b610bbe565b6040516102d39190612bff565b60405180910390f35b6102f660048036038101906102f191906123cd565b610cdc565b005b610312600480360381019061030d9190612512565b610d3e565b60405161031f9190612bff565b60405180910390f35b610342600480360381019061033d9190612512565b610e5c565b60405161034f9190612bff565b60405180910390f35b610360610fae565b005b61037c60048036038101906103779190612342565b611199565b6040516103899190612be4565b60405180910390f35b60007f80ac58cd000000000000000000000000000000000000000000000000000000007bffffffffffffffffffffffffffffffffffffffffffffffffffffffff1916827bffffffffffffffffffffffffffffffffffffffffffffffffffffffff1916148061045d57507f5b5e139f000000000000000000000000000000000000000000000000000000007bffffffffffffffffffffffffffffffffffffffffffffffffffffffff1916827bffffffffffffffffffffffffffffffffffffffffffffffffffffffff1916145b8061046d575061046c826112c6565b5b9050919050565b606060008054610483906130f3565b80601f01602080910402602001604051908101604052809291908181526020018280546104af906130f3565b80156104fc5780601f106104d1576101008083540402835291602001916104fc565b820191906000526020600020905b8154815290600101906020018083116104df57829003601f168201915b5050505050905090565b600061051182611330565b610550576040517f08c379a000000000000000000000000000000000000000000000000000000000815260040161054790612dbf565b60405180910390fd5b6004600083815260200190815260200160002060009054906101000a900473ffffffffffffffffffffffffffffffffffffffff169050919050565b600061059682610841565b90508073ffffffffffffffffffffffffffffffffffffffff168373ffffffffffffffffffffffffffffffffffffffff161415610607576040517f08c379a00000000000000000000000000000000000000000000000000000000081526004016105fe90612e1f565b60405180910390fd5b8073ffffffffffffffffffffffffffffffffffffffff1661062661139c565b73ffffffffffffffffffffffffffffffffffffffff16148061065557506106548161064f61139c565b611199565b5b610694576040517f08c379a000000000000000000000000000000000000000000000000000000000815260040161068b90612cff565b60405180910390fd5b61069e83836113a4565b505050565b6106b46106ae61139c565b8261145d565b6106f3576040517f08c379a00000000000000000000000000000000000000000000000000000000081526004016106ea90612e3f565b60405180910390fd5b6106fe83838361153b565b505050565b6060600061073761071384611797565b6040516020016107239190612b10565b604051602081830303815290604052611944565b90506009805490508161074a919061319f565b905060098181548110610786577f4e487b7100000000000000000000000000000000000000000000000000000000600052603260045260246000fd5b90600052602060002001805461079b906130f3565b80601f01602080910402602001604051908101604052809291908181526020018280546107c7906130f3565b80156108145780601f106107e957610100808354040283529160200191610814565b820191906000526020600020905b8154815290600101906020018083116107f757829003601f168201915b5050505050915050919050565b61083c83838360405180602001604052806000815250610cdc565b505050565b6000806002600084815260200190815260200160002060009054906101000a900473ffffffffffffffffffffffffffffffffffffffff169050600073ffffffffffffffffffffffffffffffffffffffff168173ffffffffffffffffffffffffffffffffffffffff1614156108ea576040517f08c379a00000000000000000000000000000000000000000000000000000000081526004016108e190612d3f565b60405180910390fd5b80915050919050565b60008073ffffffffffffffffffffffffffffffffffffffff168273ffffffffffffffffffffffffffffffffffffffff161415610964576040517f08c379a000000000000000000000000000000000000000000000000000000000815260040161095b90612d1f565b60405180910390fd5b600360008373ffffffffffffffffffffffffffffffffffffffff1673ffffffffffffffffffffffffffffffffffffffff168152602001908152602001600020549050919050565b6060600180546109ba906130f3565b80601f01602080910402602001604051908101604052809291908181526020018280546109e6906130f3565b8015610a335780601f10610a0857610100808354040283529160200191610a33565b820191906000526020600020905b815481529060010190602001808311610a1657829003601f168201915b5050505050905090565b610a4561139c565b73ffffffffffffffffffffffffffffffffffffffff168273ffffffffffffffffffffffffffffffffffffffff161415610ab3576040517f08c379a0000000000000000000000000000000000000000000000000000000008152600401610aaa90612cbf565b60405180910390fd5b8060056000610ac061139c565b73ffffffffffffffffffffffffffffffffffffffff1673ffffffffffffffffffffffffffffffffffffffff16815260200190815260200160002060008473ffffffffffffffffffffffffffffffffffffffff1673ffffffffffffffffffffffffffffffffffffffff16815260200190815260200160002060006101000a81548160ff0219169083151502179055508173ffffffffffffffffffffffffffffffffffffffff16610b6d61139c565b73ffffffffffffffffffffffffffffffffffffffff167f17307eab39ab6107e8899845ad3d59bd9653f200f220920489ca2b5937696c3183604051610bb29190612be4565b60405180910390a35050565b60606000610bf2610bce84611797565b604051602001610bde9190612aa9565b604051602081830303815290604052611944565b9050600a8054905081610c05919061319f565b9050600a8181548110610c41577f4e487b7100000000000000000000000000000000000000000000000000000000600052603260045260246000fd5b906000526020600020018054610c56906130f3565b80601f0160208091040260200160405190810160405280929190818152602001828054610c82906130f3565b8015610ccf5780601f10610ca457610100808354040283529160200191610ccf565b820191906000526020600020905b815481529060010190602001808311610cb257829003601f168201915b5050505050915050919050565b610ced610ce761139c565b8361145d565b610d2c576040517f08c379a0000000000000000000000000000000000000000000000000000000008152600401610d2390612e3f565b60405180910390fd5b610d3884848484611977565b50505050565b60606000610d72610d4e84611797565b604051602001610d5e9190612a87565b604051602081830303815290604052611944565b9050600b8054905081610d85919061319f565b9050600b8181548110610dc1577f4e487b7100000000000000000000000000000000000000000000000000000000600052603260045260246000fd5b906000526020600020018054610dd6906130f3565b80601f0160208091040260200160405190810160405280929190818152602001828054610e02906130f3565b8015610e4f5780601f10610e2457610100808354040283529160200191610e4f565b820191906000526020600020905b815481529060010190602001808311610e3257829003601f168201915b5050505050915050919050565b6060610e6782611330565b610ea6576040517f08c379a0000000000000000000000000000000000000000000000000000000008152600401610e9d90612d9f565b60405180910390fd5b6000600660008481526020019081526020016000208054610ec6906130f3565b80601f0160208091040260200160405190810160405280929190818152602001828054610ef2906130f3565b8015610f3f5780601f10610f1457610100808354040283529160200191610f3f565b820191906000526020600020905b815481529060010190602001808311610f2257829003601f168201915b505050505090506000610f506119d3565b9050600081511415610f66578192505050610fa9565b600082511115610f9b578082604051602001610f839291906129e9565b60405160208183030381529060405292505050610fa9565b610fa4846119ea565b925050505b919050565b6000610fba6007611a91565b90506000610fc782610703565b90506000610fd483610bbe565b90506000610fe184610d3e565b90506000838383604051602001610ffa93929190612a0d565b6040516020818303038152906040529050600060088585856040516020016110259493929190612a3e565b6040516020818303038152906040529050600061106a8361104584611a9f565b604051602001611056929190612acb565b604051602081830303815290604052611a9f565b905060008160405160200161107f9190612b32565b60405160208183030381529060405290506110ce6040518060400160405280600b81526020017f0a2d2d2d2d2d2d2d2d2d2d00000000000000000000000000000000000000000081525061122d565b6110d78161122d565b6111156040518060400160405280600b81526020017f2d2d2d2d2d2d2d2d2d2d0a00000000000000000000000000000000000000000081525061122d565b61111f3389611c5d565b6111298882611c7b565b6111336007611cef565b611156604051806060016040528060258152602001613932602591398933611d05565b7febb98688741ffa4c7589bf325de30cf7becb63de567842e1ccdb6cb949fdc82c3389604051611187929190612bbb565b60405180910390a15050505050505050565b6000600560008473ffffffffffffffffffffffffffffffffffffffff1673ffffffffffffffffffffffffffffffffffffffff16815260200190815260200160002060008373ffffffffffffffffffffffffffffffffffffffff1673ffffffffffffffffffffffffffffffffffffffff16815260200190815260200160002060009054906101000a900460ff16905092915050565b6112c3816040516024016112419190612bff565b6040516020818303038152906040527f41304fac000000000000000000000000000000000000000000000000000000007bffffffffffffffffffffffffffffffffffffffffffffffffffffffff19166020820180517bffffffffffffffffffffffffffffffffffffffffffffffffffffffff8381831617835250505050611da4565b50565b60007f01ffc9a7000000000000000000000000000000000000000000000000000000007bffffffffffffffffffffffffffffffffffffffffffffffffffffffff1916827bffffffffffffffffffffffffffffffffffffffffffffffffffffffff1916149050919050565b60008073ffffffffffffffffffffffffffffffffffffffff166002600084815260200190815260200160002060009054906101000a900473ffffffffffffffffffffffffffffffffffffffff1673ffffffffffffffffffffffffffffffffffffffff1614159050919050565b600033905090565b816004600083815260200190815260200160002060006101000a81548173ffffffffffffffffffffffffffffffffffffffff021916908373ffffffffffffffffffffffffffffffffffffffff160217905550808273ffffffffffffffffffffffffffffffffffffffff1661141783610841565b73ffffffffffffffffffffffffffffffffffffffff167f8c5be1e5ebec7d5bd14f71427d1e84f3dd0314c0f7b2291e5b200ac8c7c3b92560405160405180910390a45050565b600061146882611330565b6114a7576040517f08c379a000000000000000000000000000000000000000000000000000000000815260040161149e90612cdf565b60405180910390fd5b60006114b283610841565b90508073ffffffffffffffffffffffffffffffffffffffff168473ffffffffffffffffffffffffffffffffffffffff16148061152157508373ffffffffffffffffffffffffffffffffffffffff1661150984610506565b73ffffffffffffffffffffffffffffffffffffffff16145b8061153257506115318185611199565b5b91505092915050565b8273ffffffffffffffffffffffffffffffffffffffff1661155b82610841565b73ffffffffffffffffffffffffffffffffffffffff16146115b1576040517f08c379a00000000000000000000000000000000000000000000000000000000081526004016115a890612ddf565b60405180910390fd5b600073ffffffffffffffffffffffffffffffffffffffff168273ffffffffffffffffffffffffffffffffffffffff161415611621576040517f08c379a000000000000000000000000000000000000000000000000000000000815260040161161890612c9f565b60405180910390fd5b61162c838383611dcd565b6116376000826113a4565b6001600360008573ffffffffffffffffffffffffffffffffffffffff1673ffffffffffffffffffffffffffffffffffffffff16815260200190815260200160002060008282546116879190613009565b925050819055506001600360008473ffffffffffffffffffffffffffffffffffffffff1673ffffffffffffffffffffffffffffffffffffffff16815260200190815260200160002060008282546116de9190612f28565b92505081905550816002600083815260200190815260200160002060006101000a81548173ffffffffffffffffffffffffffffffffffffffff021916908373ffffffffffffffffffffffffffffffffffffffff160217905550808273ffffffffffffffffffffffffffffffffffffffff168473ffffffffffffffffffffffffffffffffffffffff167fddf252ad1be2c89b69c2b068fc378daa952ba7f163c4a11628f55a4df523b3ef60405160405180910390a4505050565b606060008214156117df576040518060400160405280600181526020017f3000000000000000000000000000000000000000000000000000000000000000815250905061193f565b600082905060005b600082146118115780806117fa90613156565b915050600a8261180a9190612f7e565b91506117e7565b60008167ffffffffffffffff811115611853577f4e487b7100000000000000000000000000000000000000000000000000000000600052604160045260246000fd5b6040519080825280601f01601f1916602001820160405280156118855781602001600182028036833780820191505090505b5090505b600085146119385760018261189e9190613009565b9150600a856118ad919061319f565b60306118b99190612f28565b60f81b8183815181106118f5577f4e487b7100000000000000000000000000000000000000000000000000000000600052603260045260246000fd5b60200101907effffffffffffffffffffffffffffffffffffffffffffffffffffffffffffff1916908160001a905350600a856119319190612f7e565b9450611889565b8093505050505b919050565b60008160405160200161195791906129d2565b6040516020818303038152906040528051906020012060001c9050919050565b61198284848461153b565b61198e84848484611dd2565b6119cd576040517f08c379a00000000000000000000000000000000000000000000000000000000081526004016119c490612c5f565b60405180910390fd5b50505050565b606060405180602001604052806000815250905090565b60606119f582611330565b611a34576040517f08c379a0000000000000000000000000000000000000000000000000000000008152600401611a2b90612dff565b60405180910390fd5b6000611a3e6119d3565b90506000815111611a5e5760405180602001604052806000815250611a89565b80611a6884611797565b604051602001611a799291906129e9565b6040516020818303038152906040525b915050919050565b600081600001549050919050565b60606000825190506000811415611ac85760405180602001604052806000815250915050611c58565b60006003600283611ad99190612f28565b611ae39190612f7e565b6004611aef9190612faf565b90506000602082611b009190612f28565b67ffffffffffffffff811115611b3f577f4e487b7100000000000000000000000000000000000000000000000000000000600052604160045260246000fd5b6040519080825280601f01601f191660200182016040528015611b715781602001600182028036833780820191505090505b5090506000604051806060016040528060408152602001613957604091399050600181016020830160005b86811015611c155760038101905062ffffff818a015116603f8160121c168401518060081b905060ff603f83600c1c1686015116810190508060081b905060ff603f8360061c1686015116810190508060081b905060ff603f831686015116810190508060e01b90508084526004840193505050611b9c565b506003860660018114611c2f5760028114611c3f57611c4a565b613d3d60f01b6002830352611c4a565b603d60f81b60018303525b508484525050819450505050505b919050565b611c77828260405180602001604052806000815250611f69565b5050565b611c8482611330565b611cc3576040517f08c379a0000000000000000000000000000000000000000000000000000000008152600401611cba90612d5f565b60405180910390fd5b80600660008481526020019081526020016000209080519060200190611cea9291906121a5565b505050565b6001816000016000828254019250508190555050565b611d9f838383604051602401611d1d93929190612c21565b6040516020818303038152906040527fe3849f79000000000000000000000000000000000000000000000000000000007bffffffffffffffffffffffffffffffffffffffffffffffffffffffff19166020820180517bffffffffffffffffffffffffffffffffffffffffffffffffffffffff8381831617835250505050611da4565b505050565b60008151905060006a636f6e736f6c652e6c6f679050602083016000808483855afa5050505050565b505050565b6000611df38473ffffffffffffffffffffffffffffffffffffffff16611fc4565b15611f5c578373ffffffffffffffffffffffffffffffffffffffff1663150b7a02611e1c61139c565b8786866040518563ffffffff1660e01b8152600401611e3e9493929190612b6f565b602060405180830381600087803b158015611e5857600080fd5b505af1925050508015611e8957506040513d601f19601f82011682018060405250810190611e8691906124e9565b60015b611f0c573d8060008114611eb9576040519150601f19603f3d011682016040523d82523d6000602084013e611ebe565b606091505b50600081511415611f04576040517f08c379a0000000000000000000000000000000000000000000000000000000008152600401611efb90612c5f565b60405180910390fd5b805181602001fd5b63150b7a0260e01b7bffffffffffffffffffffffffffffffffffffffffffffffffffffffff1916817bffffffffffffffffffffffffffffffffffffffffffffffffffffffff191614915050611f61565b600190505b949350505050565b611f738383611fd7565b611f806000848484611dd2565b611fbf576040517f08c379a0000000000000000000000000000000000000000000000000000000008152600401611fb690612c5f565b60405180910390fd5b505050565b600080823b905060008111915050919050565b600073ffffffffffffffffffffffffffffffffffffffff168273ffffffffffffffffffffffffffffffffffffffff161415612047576040517f08c379a000000000000000000000000000000000000000000000000000000000815260040161203e90612d7f565b60405180910390fd5b61205081611330565b15612090576040517f08c379a000000000000000000000000000000000000000000000000000000000815260040161208790612c7f565b60405180910390fd5b61209c60008383611dcd565b6001600360008473ffffffffffffffffffffffffffffffffffffffff1673ffffffffffffffffffffffffffffffffffffffff16815260200190815260200160002060008282546120ec9190612f28565b92505081905550816002600083815260200190815260200160002060006101000a81548173ffffffffffffffffffffffffffffffffffffffff021916908373ffffffffffffffffffffffffffffffffffffffff160217905550808273ffffffffffffffffffffffffffffffffffffffff16600073ffffffffffffffffffffffffffffffffffffffff167fddf252ad1be2c89b69c2b068fc378daa952ba7f163c4a11628f55a4df523b3ef60405160405180910390a45050565b8280546121b1906130f3565b90600052602060002090601f0160209004810192826121d3576000855561221a565b82601f106121ec57805160ff191683800117855561221a565b8280016001018555821561221a579182015b828111156122195782518255916020019190600101906121fe565b5b509050612227919061222b565b5090565b5b8082111561224457600081600090555060010161222c565b5090565b600061225b61225684612e9f565b612e7a565b90508281526020810184848401111561227357600080fd5b61227e8482856130b1565b509392505050565b600081359050612295816138d5565b92915050565b6000813590506122aa816138ec565b92915050565b6000813590506122bf81613903565b92915050565b6000815190506122d481613903565b92915050565b600082601f8301126122eb57600080fd5b81356122fb848260208601612248565b91505092915050565b6000813590506123138161391a565b92915050565b60006020828403121561232b57600080fd5b600061233984828501612286565b91505092915050565b6000806040838503121561235557600080fd5b600061236385828601612286565b925050602061237485828601612286565b9150509250929050565b60008060006060848603121561239357600080fd5b60006123a186828701612286565b93505060206123b286828701612286565b92505060406123c386828701612304565b9150509250925092565b600080600080608085870312156123e357600080fd5b60006123f187828801612286565b945050602061240287828801612286565b935050604061241387828801612304565b925050606085013567ffffffffffffffff81111561243057600080fd5b61243c878288016122da565b91505092959194509250565b6000806040838503121561245b57600080fd5b600061246985828601612286565b925050602061247a8582860161229b565b9150509250929050565b6000806040838503121561249757600080fd5b60006124a585828601612286565b92505060206124b685828601612304565b9150509250929050565b6000602082840312156124d257600080fd5b60006124e0848285016122b0565b91505092915050565b6000602082840312156124fb57600080fd5b6000612509848285016122c5565b91505092915050565b60006020828403121561252457600080fd5b600061253284828501612304565b91505092915050565b6125448161303d565b82525050565b6125538161304f565b82525050565b600061256482612ee5565b61256e8185612efb565b935061257e8185602086016130c0565b6125878161328c565b840191505092915050565b600061259d82612ef0565b6125a78185612f0c565b93506125b78185602086016130c0565b6125c08161328c565b840191505092915050565b60006125d682612ef0565b6125e08185612f1d565b93506125f08185602086016130c0565b80840191505092915050565b60008154612609816130f3565b6126138186612f1d565b9450600182166000811461262e576001811461263f57612672565b60ff19831686528186019350612672565b61264885612ed0565b60005b8381101561266a5781548189015260018201915060208101905061264b565b838801955050505b50505092915050565b6000612688603283612f0c565b91506126938261329d565b604082019050919050565b60006126ab601c83612f0c565b91506126b6826132ec565b602082019050919050565b60006126ce600a83612f1d565b91506126d982613315565b600a82019050919050565b60006126f1602483612f0c565b91506126fc8261333e565b604082019050919050565b6000612714601983612f0c565b915061271f8261338d565b602082019050919050565b6000612737606383612f1d565b9150612742826133b6565b606382019050919050565b600061275a600b83612f1d565b915061276582613451565b600b82019050919050565b600061277d602c83612f0c565b91506127888261347a565b604082019050919050565b60006127a0600d83612f1d565b91506127ab826134c9565b600d82019050919050565b60006127c3603883612f0c565b91506127ce826134f2565b604082019050919050565b60006127e6602a83612f0c565b91506127f182613541565b604082019050919050565b6000612809602983612f0c565b915061281482613590565b604082019050919050565b600061282c602e83612f0c565b9150612837826135df565b604082019050919050565b600061284f600283612f1d565b915061285a8261362e565b600282019050919050565b6000612872602083612f0c565b915061287d82613657565b602082019050919050565b6000612895603183612f0c565b91506128a082613680565b604082019050919050565b60006128b8602c83612f0c565b91506128c3826136cf565b604082019050919050565b60006128db602983612f0c565b91506128e68261371e565b604082019050919050565b60006128fe602f83612f0c565b91506129098261376d565b604082019050919050565b6000612921600a83612f1d565b915061292c826137bc565b600a82019050919050565b6000612944602183612f0c565b915061294f826137e5565b604082019050919050565b6000612967600a83612f1d565b915061297282613834565b600a82019050919050565b600061298a601d83612f1d565b91506129958261385d565b601d82019050919050565b60006129ad603183612f0c565b91506129b882613886565b604082019050919050565b6129cc816130a7565b82525050565b60006129de82846125cb565b915081905092915050565b60006129f582856125cb565b9150612a0182846125cb565b91508190509392505050565b6000612a1982866125cb565b9150612a2582856125cb565b9150612a3182846125cb565b9150819050949350505050565b6000612a4a82876125fc565b9150612a5682866125cb565b9150612a6282856125cb565b9150612a6e82846125cb565b9150612a7982612793565b915081905095945050505050565b6000612a92826126c1565b9150612a9e82846125cb565b915081905092915050565b6000612ab48261274d565b9150612ac082846125cb565b915081905092915050565b6000612ad682612914565b9150612ae282856125cb565b9150612aed8261272a565b9150612af982846125cb565b9150612b0482612842565b91508190509392505050565b6000612b1b8261295a565b9150612b2782846125cb565b915081905092915050565b6000612b3d8261297d565b9150612b4982846125cb565b915081905092915050565b6000602082019050612b69600083018461253b565b92915050565b6000608082019050612b84600083018761253b565b612b91602083018661253b565b612b9e60408301856129c3565b8181036060830152612bb08184612559565b905095945050505050565b6000604082019050612bd0600083018561253b565b612bdd60208301846129c3565b9392505050565b6000602082019050612bf9600083018461254a565b92915050565b60006020820190508181036000830152612c198184612592565b905092915050565b60006060820190508181036000830152612c3b8186612592565b9050612c4a60208301856129c3565b612c57604083018461253b565b949350505050565b60006020820190508181036000830152612c788161267b565b9050919050565b60006020820190508181036000830152612c988161269e565b9050919050565b60006020820190508181036000830152612cb8816126e4565b9050919050565b60006020820190508181036000830152612cd881612707565b9050919050565b60006020820190508181036000830152612cf881612770565b9050919050565b60006020820190508181036000830152612d18816127b6565b9050919050565b60006020820190508181036000830152612d38816127d9565b9050919050565b60006020820190508181036000830152612d58816127fc565b9050919050565b60006020820190508181036000830152612d788161281f565b9050919050565b60006020820190508181036000830152612d9881612865565b9050919050565b60006020820190508181036000830152612db881612888565b9050919050565b60006020820190508181036000830152612dd8816128ab565b9050919050565b60006020820190508181036000830152612df8816128ce565b9050919050565b60006020820190508181036000830152612e18816128f1565b9050919050565b60006020820190508181036000830152612e3881612937565b9050919050565b60006020820190508181036000830152612e58816129a0565b9050919050565b6000602082019050612e7460008301846129c3565b92915050565b6000612e84612e95565b9050612e908282613125565b919050565b6000604051905090565b600067ffffffffffffffff821115612eba57612eb961325d565b5b612ec38261328c565b9050602081019050919050565b60008190508160005260206000209050919050565b600081519050919050565b600081519050919050565b600082825260208201905092915050565b600082825260208201905092915050565b600081905092915050565b6000612f33826130a7565b9150612f3e836130a7565b9250827fffffffffffffffffffffffffffffffffffffffffffffffffffffffffffffffff03821115612f7357612f726131d0565b5b828201905092915050565b6000612f89826130a7565b9150612f94836130a7565b925082612fa457612fa36131ff565b5b828204905092915050565b6000612fba826130a7565b9150612fc5836130a7565b9250817fffffffffffffffffffffffffffffffffffffffffffffffffffffffffffffffff0483118215151615612ffe57612ffd6131d0565b5b828202905092915050565b6000613014826130a7565b915061301f836130a7565b925082821015613032576130316131d0565b5b828203905092915050565b600061304882613087565b9050919050565b60008115159050919050565b60007fffffffff0000000000000000000000000000000000000000000000000000000082169050919050565b600073ffffffffffffffffffffffffffffffffffffffff82169050919050565b6000819050919050565b82818337600083830152505050565b60005b838110156130de5780820151818401526020810190506130c3565b838111156130ed576000848401525b50505050565b6000600282049050600182168061310b57607f821691505b6020821081141561311f5761311e61322e565b5b50919050565b61312e8261328c565b810181811067ffffffffffffffff8211171561314d5761314c61325d565b5b80604052505050565b6000613161826130a7565b91507fffffffffffffffffffffffffffffffffffffffffffffffffffffffffffffffff821415613194576131936131d0565b5b600182019050919050565b60006131aa826130a7565b91506131b5836130a7565b9250826131c5576131c46131ff565b5b828206905092915050565b7f4e487b7100000000000000000000000000000000000000000000000000000000600052601160045260246000fd5b7f4e487b7100000000000000000000000000000000000000000000000000000000600052601260045260246000fd5b7f4e487b7100000000000000000000000000000000000000000000000000000000600052602260045260246000fd5b7f4e487b7100000000000000000000000000000000000000000000000000000000600052604160045260246000fd5b6000601f19601f8301169050919050565b7f4552433732313a207472616e7366657220746f206e6f6e20455243373231526560008201527f63656976657220696d706c656d656e7465720000000000000000000000000000602082015250565b7f4552433732313a20746f6b656e20616c7265616479206d696e74656400000000600082015250565b7f54484952445f574f524400000000000000000000000000000000000000000000600082015250565b7f4552433732313a207472616e7366657220746f20746865207a65726f2061646460008201527f7265737300000000000000000000000000000000000000000000000000000000602082015250565b7f4552433732313a20617070726f766520746f2063616c6c657200000000000000600082015250565b7f222c20226465736372697074696f6e223a20224120686967686c79206163636c60008201527f61696d656420636f6c6c656374696f6e206f6620737175617265732e222c202260208201527f696d616765223a2022646174613a696d6167652f7376672b786d6c3b6261736560408201527f36342c0000000000000000000000000000000000000000000000000000000000606082015250565b7f5345434f4e445f574f5244000000000000000000000000000000000000000000600082015250565b7f4552433732313a206f70657261746f7220717565727920666f72206e6f6e657860008201527f697374656e7420746f6b656e0000000000000000000000000000000000000000602082015250565b7f3c2f746578743e3c2f7376673e00000000000000000000000000000000000000600082015250565b7f4552433732313a20617070726f76652063616c6c6572206973206e6f74206f7760008201527f6e6572206e6f7220617070726f76656420666f7220616c6c0000000000000000602082015250565b7f4552433732313a2062616c616e636520717565727920666f7220746865207a6560008201527f726f206164647265737300000000000000000000000000000000000000000000602082015250565b7f4552433732313a206f776e657220717565727920666f72206e6f6e657869737460008201527f656e7420746f6b656e0000000000000000000000000000000000000000000000602082015250565b7f45524337323155524953746f726167653a2055524920736574206f66206e6f6e60008201527f6578697374656e7420746f6b656e000000000000000000000000000000000000602082015250565b7f227d000000000000000000000000000000000000000000000000000000000000600082015250565b7f4552433732313a206d696e7420746f20746865207a65726f2061646472657373600082015250565b7f45524337323155524953746f726167653a2055524920717565727920666f722060008201527f6e6f6e6578697374656e7420746f6b656e000000000000000000000000000000602082015250565b7f4552433732313a20617070726f76656420717565727920666f72206e6f6e657860008201527f697374656e7420746f6b656e0000000000000000000000000000000000000000602082015250565b7f4552433732313a207472616e73666572206f6620746f6b656e2074686174206960008201527f73206e6f74206f776e0000000000000000000000000000000000000000000000602082015250565b7f4552433732314d657461646174613a2055524920717565727920666f72206e6f60008201527f6e6578697374656e7420746f6b656e0000000000000000000000000000000000602082015250565b7f7b226e616d65223a202200000000000000000000000000000000000000000000600082015250565b7f4552433732313a20617070726f76616c20746f2063757272656e74206f776e6560008201527f7200000000000000000000000000000000000000000000000000000000000000602082015250565b7f46495253545f574f524400000000000000000000000000000000000000000000600082015250565b7f646174613a6170706c69636174696f6e2f6a736f6e3b6261736536342c000000600082015250565b7f4552433732313a207472616e736665722063616c6c6572206973206e6f74206f60008201527f776e6572206e6f7220617070726f766564000000000000000000000000000000602082015250565b6138de8161303d565b81146138e957600080fd5b50565b6138f58161304f565b811461390057600080fd5b50565b61390c8161305b565b811461391757600080fd5b50565b613923816130a7565b811461392e57600080fd5b5056fe416e204e465420772f20494420257320686173206265656e206d696e74656420746f2025734142434445464748494a4b4c4d4e4f505152535455565758595a6162636465666768696a6b6c6d6e6f707172737475767778797a303132333435363738392b2fa264697066735822122037770e3082048fa713477ede5704906b1ca83194bdd25881d80d8aae5cf5e42e64736f6c634300080400333c73766720786d6c6e733d27687474703a2f2f7777772e77332e6f72672f323030302f73766727207072657365727665417370656374526174696f3d27784d696e594d696e206d656574272076696577426f783d273020302033353020333530273e3c7374796c653e2e62617365207b2066696c6c3a2077686974653b20666f6e742d66616d696c793a2073657269663b20666f6e742d73697a653a20323470783b207d3c2f7374796c653e3c726563742077696474683d273130302527206865696768743d2731303025272066696c6c3d27626c61636b27202f3e3c7465787420783d273530252720793d273530252720636c6173733d27626173652720646f6d696e616e742d626173656c696e653d276d6964646c652720746578742d616e63686f723d276d6964646c65273e",
  "linkReferences": {},
  "deployedLinkReferences": {}
}